{
    "contractName": "Proposals",
    "abi": [
        {
            "inputs": [
                {
                    "internalType": "string",
                    "name": "_title",
                    "type": "string"
                },
                {
                    "internalType": "string",
                    "name": "_description",
                    "type": "string"
                }
            ],
            "name": "createProposal",
            "outputs": [],
            "stateMutability": "nonpayable",
            "type": "function"
        },
        {
            "inputs": [],
            "name": "getProposals",
            "outputs": [
                {
                    "components": [
                        {
                            "internalType": "string",
                            "name": "title",
                            "type": "string"
                        },
                        {
                            "internalType": "string",
                            "name": "description",
                            "type": "string"
                        },
                        {
                            "internalType": "address",
                            "name": "createdBy",
                            "type": "address"
                        }
                    ],
                    "internalType": "struct Proposals.Proposal[]",
                    "name": "",
                    "type": "tuple[]"
                }
            ],
            "stateMutability": "view",
            "type": "function"
        },
        {
            "inputs": [
                {
                    "internalType": "uint256",
                    "name": "",
                    "type": "uint256"
                }
            ],
            "name": "proposals",
            "outputs": [
                {
                    "internalType": "string",
                    "name": "title",
                    "type": "string"
                },
                {
                    "internalType": "string",
                    "name": "description",
                    "type": "string"
                },
                {
                    "internalType": "address",
                    "name": "createdBy",
                    "type": "address"
                }
            ],
            "stateMutability": "view",
            "type": "function"
        }
    ],
    "bytecode": "608080604052346100165761078c908161001c8239f35b600080fdfe6040608081526004908136101561001557600080fd5b600090813560e01c8063013cf08b146104b357806362564c4814610356576365e481e21461004257600080fd5b3461035257806003193601126103525767ffffffffffffffff92803584811161034e5761007290369083016106fa565b9060243585811161034a5761008a90369083016106fa565b90835192610097846105c0565b835260209384840192835283019333855285549168010000000000000000831015610337576100cc6001938481018955610538565b959095610325575191825189811161031257806100e98854610586565b94601f958681116102c4575b508390868311600114610265578b9261025a575b5050600019600383901b1c191690851b1786555b8386019451918251998a1161024757506101378554610586565b838111610204575b508092891160011461019f5750968092819288996002989994610194575b50501b916000199060031b1c19161790555b019060018060a01b039051166bffffffffffffffffffffffff60a01b82541617905580f35b01519250388061015d565b909791601f198316988589528289209289905b8b82106101ed57505083600298999a106101d4575b505050811b01905561016f565b015160001960f88460031b161c191690553880806101c7565b8087859682949686015181550195019301906101b2565b85895281892084808c0160051c820192848d1061023e575b0160051c019085905b82811061023357505061013f565b8a8155018590610225565b9250819261021c565b634e487b7160e01b895260419052602488fd5b015190503880610109565b898c52848c208894509190601f1984168d5b878282106102ae5750508411610295575b505050811b01865561011d565b015160001960f88460031b161c19169055388080610288565b8385015186558b97909501949384019301610277565b909150888b52838b208680850160051c820192868610610309575b918991869594930160051c01915b8281106102fb5750506100f5565b8d81558594508991016102ed565b925081926102df565b634e487b7160e01b895260418352602489fd5b634e487b7160e01b8852878252602488fd5b634e487b7160e01b875260419052602486fd5b8480fd5b8380fd5b5080fd5b50913461035257816003193601126103525781549067ffffffffffffffff82116104a05750825191602092610390848460051b01826105f2565b82815281805283810192827f290decd9548b62a8d60345a988386fc84ba6bc95484008f6362f93160ef3e563855b83831061044f57505050508451938085019181865251809252858501868360051b8701019493965b8388106103f35786860387f35b90919293948380600192603f198a82030186528851908561042f61041f845160608086528501906106ba565b85850151848203878601526106ba565b9281878060a01b03910151169101529701930197019690939291936103e6565b6003886001928b9a97989a51610464816105c0565b61046d86610614565b815261047a858701610614565b83820152848060a01b036002870154168d820152815201920192019190969493966103be565b634e487b7160e01b835260419052602482fd5b508234610534576020366003190112610534573591805483101561053157506104de61051b92610538565b50906104e982610614565b916105296104f960018301610614565b91600260018060a01b03910154169183519586956060875260608701906106ba565b9085820360208701526106ba565b918301520390f35b80fd5b8280fd5b90600091825481101561057257600390838052027f290decd9548b62a8d60345a988386fc84ba6bc95484008f6362f93160ef3e563019190565b634e487b7160e01b83526032600452602483fd5b90600182811c921680156105b6575b60208310146105a057565b634e487b7160e01b600052602260045260246000fd5b91607f1691610595565b6060810190811067ffffffffffffffff8211176105dc57604052565b634e487b7160e01b600052604160045260246000fd5b90601f8019910116810190811067ffffffffffffffff8211176105dc57604052565b906040519182600082549261062884610586565b9081845260019485811690816000146106975750600114610654575b5050610652925003836105f2565b565b9093915060005260209081600020936000915b81831061067f57505061065293508201013880610644565b85548884018501529485019487945091830191610667565b91505061065294506020925060ff191682840152151560051b8201013880610644565b919082519283825260005b8481106106e6575050826000602080949584010152601f8019910116010190565b6020818301810151848301820152016106c5565b81601f820112156107515780359067ffffffffffffffff82116105dc576040519261072f601f8401601f1916602001856105f2565b8284526020838301011161075157816000926020809301838601378301015290565b600080fdfea264697066735822122056a5b16bc5bcc1db7b5aaaa810fa506972e757f638819e4ce08e207d649cda7a64736f6c63430008110033",
    "sourcePath": "c:/Users/PavelEspitia/FullstackBlockchainDeveloper/contracts/contracts/Proposals.sol",
    "compiler": {
        "name": "solc",
        "version": "0.8.17+commit.8df45f5f"
    },
    "functionHashes": {
        "createProposal(string,string)": "65e481e2",
        "getProposals()": "62564c48",
        "proposals(uint256)": "013cf08b"
    },
    "gasEstimates": {
        "creation": {
            "codeDepositCost": "386400",
            "executionCost": "431",
            "totalCost": "386831"
        },
        "external": {
            "createProposal(string,string)": "infinite",
            "getProposals()": "infinite",
            "proposals(uint256)": "infinite"
        }
    }
}